:020000040800F2
:10000000207B0120550300082F750008FF630008BE
:100010002D750008451D0008339F000800000000F2
:100020000000000000000000000000009502000831
:10003000B71E000800000000F10200083D7600082D
:100040006F0300086F0300086F0300086F030008C8
:100050006F0300086F0300086F0300086F030008B8
:100060006F0300086F0300086F030008651D000898
:10007000711D00087D1D0008891D0008951D0008E0
:10008000A11D0008AD1D00086F0300086F030008E4
:100090006F0300086F0300086F0300086F03000878
:1000A0006F0300086F0300086F0300086F03000868
:1000B0000D77000849770008857700086F0300086E
:1000C0006F0300086F0300086F0300086F03000848
:1000D0006F0300086F030008858100089181000804
:1000E000BD1E00086F0300086F0300089978000820
:1000F000F1780008E57800086F030008B91D0008D2
:100100006F0300086F030008C17700086F03000841
:100110006F030008B97C00086F030008FD77000832
:100120006F0300086F0300086F0300086F030008E7
:100130006F0300086F0300086F0300086F030008D7
:100140006F0300086F0300086F0300086F030008C7
:100150006F0300086F0300086F0300089D8100080B
:100160006F0300086F0300086F0300086F030008A7
:100170006F030008357500086F03000800000000D9
:100180006F0300086F03000800F002F800F073F836
:100190000AA090E8000C82448344AAF10107DA45E2
:1001A00001D100F068F8AFF2090EBAE80F0013F0C1
:1001B000010F18BFFB1A43F0010318474C1D010043
:1001C0006C1D01000A444FF0000C10F8013B13F0C5
:1001D000070408BF10F8014B1D1108BF10F8015BA0
:1001E000641E05D010F8016B641E01F8016BF9D193
:1001F00013F0080F1EBF10F8014BAD1C0C1B09D1EA
:100200006D1E58BF01F801CBFAD505E014F8016B5B
:1002100001F8016B6D1EF9D59142D6D370470000ED
:100220000023002400250026103A28BF78C1FBD8FF
:10023000520728BF30C148BF0B607047662911F0D4
:100240007282642900F0E481732900F0DA860020CC
:1002500070471FB511F05DFA9DE8030000F0F8FB50
:1002600000F0EAFE04000020002110F0C1FCE06074
:100270001FBD10B510BD01F004F81146FFF7E9FFEE
:100280000DF0BEF801F022F803B4FFF7F2FF03BC53
:100290000BF073FA2C4B19680868B0E8F04F80F344
:1002A0000988BFF36F8F4FF0000080F3118870470B
:1002B0000000000008480068006880F308884FF0DC
:1002C000000080F3148862B661B6BFF34F8FBFF3AE
:1002D0006F8F00DF00BF00BF08ED00E0DFF80C000B
:1002E000016841F470010160704700BF88ED00E0D3
:1002F000EFF30980BFF36F8F134B1A681EF0100FD6
:1003000008BF20ED108A20E9F04F106009B44FF0CB
:10031000500080F31188BFF34F8FBFF36F8F0FF042
:100320008DFC4FF0000080F3118809BC1968086843
:10033000B0E8F04F1EF0100F08BFB0EC108A80F349
:100340000988BFF36F8F704780000020EFF30580AE
:10035000704700000948804709480047FEE7FEE76C
:10036000FEE7FEE7FEE7FEE7FEE7FEE7FEE7FEE765
:1003700004480549054A064B70470000F17600081D
:100380008901000820730120207B012020750120B5
:1003900020750120704770B5064600F03DFB0568EA
:1003A00006F10B0020F00704B4429CBF002070BD92
:1003B0002B466A68BAB11068A04210D304F1080154
:1003C00088423CBF5068586007D35168101941609B
:1003D0001168091B016058601460101D70BD134640
:1003E0005268002AE7D12146284600F01DFB00286C
:1003F000DED170BD70B50446051F00F00DFB00682E
:10040000002C14BF446870BD002C18BFAC423CBF28
:1004100020466468F8D301680A18AA4218BF4560EC
:1004200003D12A6805461144016028684119A14298
:100430001CBF6C6070BD61686960216808442860F9
:1004400070BD53EA020C00F069802DE9F04B4FF0CB
:100450000006002B1FBFB3FA83F503FA05F424FA54
:1004600005F65E4012BF1643B2FA82F502FA05F4B1
:10047000C5F120051EBF22FA05FC44EA0C04203514
:1004800056EA044C4FEA144418BF641C4FF00008AD
:100490004FF00009904271EB030C39D3002919BFCA
:1004A000B1FA81F701FA07F6B0FA80F700FA07F619
:1004B000C7F120071EBF20FA07FC46EA0C062037CA
:1004C000B6FBF4FCA7EB0507103F07F01F0BCBF1C1
:1004D00020060CFA0BFB2CFA06F644BFB3460026A6
:1004E000202FA4BF5E464FF0000B5BEA060C08BF4E
:1004F0004FF0010B19EB0B09ABFB027C48EB060834
:10050000C01B06FB02CC0BFB03CC71EB0C01C1E75B
:100510000B46024641464846BDE8F08B13B54FF006
:1005200000004FF00001AFF30080BDE81C407047B1
:100530000FB4044910B503AA029800F067FD10BC7F
:100540005DF814FB600100200FB41CB5074B06AA30
:100550007B4469460090059800F029FD002069461B
:1005600000F038FD1CBC5DF814FB0000810A00009F
:1005700070B5044685690068C10601D5302600E0E3
:100580002026C00707D070BDD4E90121304690472E
:10059000206A401C20626D1EF6D570BD70B5044601
:1005A00085690078C00707D170BDD4E901212020FA
:1005B0009047206A401C20626D1EF6D570BD70B554
:1005C0000C460546012A05D02878800600D5EA6940
:1005D000002302E0012305E05B1C934202D2E05CB1
:1005E0000028F9D1A869E618C01AA861286A184439
:1005F00028622846FFF7BCFF04E0D5E9012114F882
:10060000010B9047B442F8D32846FFF7C7FF70BDEF
:100610002DE9F0410646002410687529314616A5DB
:1006200010D0AFF30080002802DA404213A507E0A3
:1006300031688A0701D512A502E0490704D511A542
:10064000012401E0AFF3008000210A2206F1240713
:1006500009E0B0FBF2FCB0FBF2F302FB1C0030300F
:1006600078541846491C0028F3D123462A463046C0
:10067000BDE8F04100F02DBA000000002D000000A0
:100680002B000000200000002DE9F05F89460446A1
:100690004FF0000ADFF824B1FB44C0F820A0204648
:1006A000E168884700287DD0252806D0D4E90121BB
:1006B0009047206A401C2062F1E700255F462046F3
:1006C000E16888472028064607DB312E05D2B81995
:1006D00010F8200C08B10543F1E7A80701D525F073
:1006E0000405C4F81CA00027C4F818A02A2E09D0BD
:1006F00030460BF03BF838B304EB8708303EC8F8BF
:10070000186019E059F8041B204604EB8702916138
:10071000E1688847012F064618D1E069002820DAF1
:1007200025F020051DE0D8F8180000EB800006EB4E
:1007300040003038C8F818002046E168884706466F
:100740000BF014F80028EED1012F0AD02E2E08D17C
:100750002046E16888477F1C0646022F45F02005A9
:10076000C4DBA069002803DA404245F00105A0611E
:10077000E80701D025F01005A6B1A6F1410019281F
:1007800002D8203645F400654A46314620462560A9
:100790004D46FFF753FD60B1012807D0ED1D25F050
:1007A000070000E007E000F1080978E705F1040917
:1007B00075E730467AE7206ABDE8F09F64130100D0
:1007C00010B5431C02E010F8011B71B18107FAD18A
:1007D0004FF0013202C88C1A8C4314EAC211F9D0CE
:1007E000C01A0A0603D0C01E10BDC01A10BD0A04EC
:1007F00001D0801E10BD0902FCD0401E10BD032A8E
:1008000040F2308010F0030C00F0158011F8013B2D
:10081000BCF1020F624498BF11F801CB00F8013B14
:1008200038BF11F8013BA2F1040298BF00F801CBD8
:1008300038BF00F8013B11F0030300F02580083AAF
:10084000C0F0088051F8043B083A51F804CBA0E806
:100850000810F5E7121D5CBF51F8043B40F8043B5B
:10086000AFF30080D20724BF11F8013B11F801CB90
:1008700048BF11F8012B24BF00F8013B00F801CB61
:1008800048BF00F8012B704710B5203AC0F00B802C
:10089000B1E81850203AA0E81850B1E81850A0E884
:1008A0001850BFF4F5AF5FEA027C24BFB1E81850DE
:1008B000A0E8185044BF18C918C0BDE810405FEA4E
:1008C000827C24BF51F8043B40F8043B08BF7047CA
:1008D000D20728BF31F8023B48BF11F8012B28BFCF
:1008E00020F8023B48BF00F8012B704702F0FF03DD
:1008F00043EA032242EA024200F002B84FF000024B
:100900000429C0F0128010F0030C00F01B80CCF121
:10091000040CBCF1020F18BF00F8012BA8BF20F88F
:10092000022BA1EB0C0100F00DB85FEAC17C24BFE3
:1009300000F8012B00F8012B48BF00F8012B70478D
:100940004FF0000200B5134694469646203922BF68
:10095000A0E80C50A0E80C50B1F12001BFF4F7AFB3
:10096000090728BFA0E80C5048BF0CC05DF804EB95
:10097000890028BF40F8042B08BF704748BF20F803
:10098000022B11F0804F18BF00F8012B70470000B8
:100990004FF0013C50F8042B51F8043B9A4221D10E
:1009A000A2EB0C03934313EACC1317D150F8042B9A
:1009B00051F8043B9A4215D1A2EB0C03934313EA7E
:1009C000CC130BD150F8042B51F8043B9A4209D1B7
:1009D000A2EB0C03934313EACC13DBD04FF00000DF
:1009E000704700BFD01A01BAB1FA81F101F01801C5
:1009F00022FA01F0CB40C1F12001DBB2C0B2C01A33
:100A00002CFA01F3D11A914311EAC311E6D17047D0
:100A1000704770477047704700487047C4720120A4
:100A2000704770477047704738B504460A46002043
:100A30006946AFF30080002808BF38BD0246009920
:100A4000204600F001FB012038BD012000F012BC5F
:100A5000F8B5AFF30080054600200C46102000BF1B
:100A60000646A819A0420DD9324669460020AFF3C8
:100A70000080070008BF00F0FDFB0098A04218BFEF
:100A80000546C419FFF7C8FF05600746F01D20F0B2
:100A900007004619284600F00AF8B44208BFF8BD1E
:100AA000A21B31463868BDE8F84000F0CDBA0021FD
:100AB0000160C0E9011070471020704710B500F0C8
:100AC000BFFA006810BD10B5044600F0B9FA046022
:100AD00010BD2DE9F0470D4699469246044600F1B7
:100AE00024080168880604D5E06921F0100121601E
:100AF00000E00120A84201DD471B00E00027A169BA
:100B00007A1902EB0900081AA0612078C00602D405
:100B10002046FFF72DFD002608E0D4E901211AF850
:100B200006009047206A401C761C20624E45F4DB8C
:100B30002078C0060AD52046FFF71AFD06E0D4E962
:100B4000012130209047206A401C2062381EA7F106
:100B50000107F4DC07E0D4E9012118F8050090470B
:100B6000206A401C2062281EA5F10105F3DC204606
:100B7000FFF714FD2078000602D50220BDE8F087BB
:100B80000120FBE770472DE9FF4F0C461E464FF052
:100B9000FF378BB0D2E90001DDF860800A908A4609
:100BA000C1F30A5505B93D46002108464FF0000043
:100BB000BAF1000F00F4400005DA00EB80004FF4BA
:100BC000400101EA50004FEA9059B9F1010F00DDF0
:100BD000B9460A9850EA4A000ED044F61050A5F2E1
:100BE000FF3545432F14B8F1000F1ED07542291E62
:100BF0001EDDC9F100021CE0B8F1010F4FF000004A
:100C000001D0302103E0F24305E02154401CB04202
:100C1000FBDB30460022002121540B99C1F80880EB
:100C2000C1E900200FB0BDE8F08FBD1B6D1CDEE7F1
:100C30004A4600DA694206A800F0A6FA06AB93E835
:100C4000070003AB83E8070050460A9900F08DFBCC
:100C50008DE80700A0F500501F3800900398002D84
:100C60000ADD42F21F014A460844002303A903900B
:100C7000684600F0F6FD09E0A0F500504A461F382E
:100C8000002303A90390684600F000FE8DE80700EA
:100C90000004000C03D04FF0FF30410800E0104684
:100CA000B8F1000F03D00022009215461EE0751E19
:100CB00005D400F0E3F9303262556D1EF9D5B34624
:100CC0000122084302D000227F1C04E02078302853
:100CD00001D100227F1E002A099784D01DE0112D2A
:100CE00007DA00F0CBF9303262556D1C50EA010290
:100CF000F5D1084302D00098C8B10EE00021681E6B
:100D000005E0235C625C63542254401E491C81420E
:100D1000F7DBAB46A81B401E0990002004F80B002F
:100D20000B98099AC0F80880C0E9002B7AE71126D1
:100D30004FF0000857E72DE9F04F88460446D21DD2
:100D400022F0070191B0D1E90001CDE90A0109F0D3
:100D5000F1F802460B98C00F01D02D2007E0206863
:100D6000810701D52B2002E0202101EAC000032ADF
:100D7000099001D0072A05DB03464146204600F0D2
:100D8000C3F90BE12078800601D5E06900E0062078
:100D9000B8F1650F814606D0B8F1660F18D0B8F1EA
:100DA000670F70D131E00020B9F1110F009001DB25
:100DB000112301E009F101030AAA01A90CA8FFF718
:100DC000E2FEDDE90C70002609F10105834647E0EB
:100DD00001204B4600904FF000470AAA01A90CA839
:100DE000FFF7D1FEDDE90DB00C995D46002610B984
:100DF00009F101000D18B9EB050003D4C0F1FF366D
:100E000009F10105A5EB09002BE0B9F1010F01DAA9
:100E10004FF001090020B9F1110F0090484601DDA3
:100E2000112300E003460AAA01A90CA8FFF7ABFEB4
:100E3000DDE90C704D4600268346207800070AD471
:100E4000AB4500DA5D4601A8012D04DD411911F81A
:100E5000011C302907D04F4502DA17F1040F04DADC
:100E6000012082460FE06D1EEEE7002F02DCED1B35
:100E70003E4403E0781CA84200DD7D1CB81B00F155
:100E8000010A4FF000472078000703D4AA4501DB90
:100E90004FF0FF3A0021B7F1004F0DF143088DF8F4
:100EA000431024D002202B23002F01DA7F422D2370
:100EB0000A21021EA0F1010000DC5FB197FBF1FCEA
:100EC00097FBF1F201FB1C7C17460CF1300C08F883
:100ED00001CDEEE7A8F1010003702188090501D5D5
:100EE000452100E06521A0F1010800F8011C0998E6
:100EF0000FA9A1EB0807FF1D00B10120411901EB6B
:100F0000EA70A1693844081A401EA0612078C00622
:100F100002D42046FFF72CFB099828B1D4E901211F
:100F20009047206A401C20622078C00622D52046C7
:100F3000FFF71EFB1EE0002E04DBB34502DD01A817
:100F4000805D00E03020D4E901219047206A401CF8
:100F50002062761CAAF101005FEA000A0AD100F0C3
:100F60006BF8C0680168405CD4E901219047206AB1
:100F7000401C2062281EA5F10105DCDC07E0D4E955
:100F8000012118F8010B9047206A401C2062381E8E
:100F9000A7F10107F3DC2046FFF700FB032011B0A7
:100FA00041E6000001694A1C02610878704700B5FB
:100FB0008FB0CDE901310021059105497944CDE992
:100FC000031011466846FFF75FFB0FB000BD00003D
:100FD000E5FFFFFF0A6802F8010B0A60704710B5D1
:100FE000436913B1AFF3008001E0FFF7E8FA012095
:100FF00010BD127800F124010A7000224A7001220B
:10100000EDE711684FF0FF32E9E70000074B70B5DC
:101010000D467B44FFF7CBFF0446284600F026F937
:1010200010B14FF0FF3070BD204670BDEFB600002C
:1010300000487047BC72012000487047DC720120F4
:1010400000487047BC720120034640688C46002867
:1010500018BF88423CBF03464068F8D3186818445C
:10106000884207D00CF1030020F00700001D411A50
:10107000521A0146081D0A60FFF7BCB930B5B0F13D
:101080000A024FEA900E71F100034EEA817EB0EB46
:101090000E0061EB91014FEA101E4EEA017E10EB4B
:1010A0000E0041EB11114FEA102E4EEA016E10EBCB
:1010B0000E0041EB11214FEA104E4EEA014E10EBAB
:1010C0000E0041EB1141401841F100014FEAD00000
:1010D00040EA41704FEAD10110EB80054FEA8104EC
:1010E00044EA907444EB01046D1944EB0404521B70
:1010F000A3414FF0000348BF0A3200D530BD401C69
:1011000041F1000130BD00002DE9F0411F460446C9
:1011100003260168072A01F4006004DB08B116A564
:1011200005E016A503E008B115A500E015A521F01E
:1011300010002060A069C01EA0610FB1401EA06118
:101140002046FFF715FA4FB1D4E901213846904700
:10115000206A401C2062C01C206206E0206AFAE778
:10116000D4E9012115F8010B9047761EF8D22046EC
:10117000FFF714FABDE8F0814E414E006E616E003B
:10118000494E4600696E66002DE9F04781461646D5
:101190008AB0354878440DC88DE80D00324878444F
:1011A000801C03AC0DC884E80D0041F69B30084458
:1011B000372190FBF1F290FBF1F5A5F1800501FBE1
:1011C00012041B3C02D56442012000E00020DFF83D
:1011D00098A080460027FA44AAF1BE0A0EE0E00774
:1011E0000AD03246684607EB470101230AEB81012A
:1011F00000F04CFB8DE8070064107F1C002CEED142
:10120000194F7F44AE3F19E0E80715D007EB0410F3
:101210000DF1180A90E80E008AE80E00C068F0424E
:1012200001D1981908903246012306A903A800F0BD
:101230002DFB03AB83E807006D10641C002DE3D188
:101240004FF0010332466946B8F1000F03A802D0FF
:1012500000F007FB01E000F019FBC9E90001C9F843
:1012600008200AB0BDE8F087840B0100007B00F085
:101270008000704710B500F037F8BDE8104000F06E
:101280002EB87546FFF7D4FEAE46050069465346B4
:1012900020F00700854618B020B5FFF769F8BDE8D3
:1012A00020404FF000064FF000074FF000084FF0CD
:1012B000000B21F00701AC46ACE8C009ACE8C0095E
:1012C000ACE8C009ACE8C0098D46704710B50446CB
:1012D000AFF300802046BDE81040FEF7D5BF0028E0
:1012E00001D00AF04ABA704710B5012805D0002194
:1012F00003A000F021F8012010BD09A1F8E70000CB
:1013000053494752544D454D3A204F7574206F66EE
:101310002068656170206D656D6F72790000000056
:101320003A2048656170206D656D6F727920636F3A
:10133000727275707465640070B505460C460A20BB
:1013400000E06D1C0AF01AFA35B128780028F8D1AF
:1013500002E0641C0AF012FA14B120780028F8D1D7
:10136000BDE870400A200AF009BA5FEA400C08BFE5
:1013700091F0000F4FEA8C234FEAC12243EA51510A
:101380004FEA1C5018BF00F5F0404FEA300018BF7C
:1013900041F000415FEA6C5C00F02980BCF1FF3F46
:1013A00008BF40F080407047130C06BF12044FF096
:1013B000100C4FF0000C130E04BF12020CF1080CBD
:1013C000130F04BF12010CF1040C930F04BF920021
:1013D0000CF1020CD30F04BF52000CF1010C1146AA
:1013E0004FF00002A0F11F00A0EB0C00704711F0BD
:1013F000004F08BF704731F000413FF4D5AF0B0CF0
:1014000006BF09044FF0100C4FF0000C0B0E04BF88
:1014100009020CF1080C0B0F04BF09010CF1040CBC
:101420008B0F04BF89000CF1020CCB0F04BF4900E5
:101430000CF1010CCCF12003A0EB0C0022FA03F319
:1014400002FA0CF241EA030100F10100704720F0BA
:101450007F4C80EA030023F07F47ACEB070303F5E2
:101460007C5300F0004003F1FF032DE980494FEA6F
:10147000154B09B44FEA144325EA0B4E24EA0348FE
:101480000FF2042606EB132749083E785FEA320282
:1014900003FB0667C7F5000707FB06F64FEA54375C
:1014A0004FEAD64606F1020607FB066CCCF1005C5B
:1014B0004FEA1C472CEA074C07FB06F40CFB06F529
:1014C00004EB15464FEA961634BF00204FF000405B
:1014D0004FEAD13706FB07FC4FEA1C4C0CFB0BF71D
:1014E000D21B03FB0CF761EB07010CFB0EF7B0EB13
:1014F000074072EB17420CFB08F734BFA2EB074220
:10150000B2EB074261EB17414FEA0C444FEA9107F7
:1015100006FB07FC4FEA1C4C0CFB0BF7B0EBC7407B
:1015200072EB573203FB0CF734BFA2EBC742B2EBAE
:10153000C74261EB57310CFB0EF7B0EBC70072EB03
:1015400057720CFB08F734BFA2EBC702B2EBC7021D
:1015500061EB5771039F4FEA816141EA921104EBFD
:10156000CC044FEAD1374FEA826206FB07FC42EA1D
:1015700090124FEA80604FEA1C4C0CFB0BF7D21B19
:1015800003FB0CF761EB07010CFB0EF7B0EB074018
:1015900072EB17420CFB08F734BFA2EB0742B2EB29
:1015A000074261EB17414FEA8C554FEA910704EB74
:1015B0009C2406FB07FC4FEA1C4C0CFB0BF7B0EB22
:1015C000C74072EB573203FB0CF734BFA2EBC742A4
:1015D000B2EBC74261EB57310CFB0EF7B0EBC70023
:1015E00072EB57720CFB08F734BFA2EBC702B2EBE9
:1015F000C70261EB577115EB4C254FEA816141EA57
:1016000092114FEA82624FEAD13742EA901206FB0A
:1016100007FC44F100044FEA80604FEA1C4C0CFBCD
:101620000BF7D21B03FB0CF761EB07010CFB0EF76A
:10163000B0EB074072EB17420CFB08F734BFA2EB8C
:101640000742B2EB074261EB174115EB1C154FEA5D
:10165000813141EA92414FEA823242EA90424FEAB6
:1016600080304FEA0C7644F1000448EA03434EEA26
:101670000B484FF0000EB2EB080C71EB030724BFD0
:10168000624639464EEB0E0E4FF0000B00185241E9
:1016900049414BEB0B0BB2EB080C71EB03077BF1F1
:1016A000000B24BF624639464EEB0E0E4FF0000B86
:1016B0000018524149414BEB0B0BB2EB080C71EB9C
:1016C00003077BF1000B24BF624639464EEB0E0E3A
:1016D00051EA020718BF46F0010616EB0E7655F1E7
:1016E000000254F1000103D5BDE88901BDE800887E
:1016F000BDE88901BDE80048B619524141EB01013E
:10170000A3F10103704780807F7E7D7C7B7A7978AE
:10171000777676757473727171706F6E6E6D6C6CB6
:101720006B6A6A6968686766666564646363626158
:101730006160605F5F5E5E5D5D5C5C5B5B5A5A59D9
:101740005958585757565655555554545353525245
:101750005251515050504F4F4F4E4E4D4D4D4C4C9D
:101760004C4B4B4B4A4A4A494949484848474747E6
:101770004746464645454544444444434343434223
:10178000424242414141002B9C4630D477002BD04D
:101790001CB54FEA370703B44FF010004FF01001AB
:1017A000BAF1000F06D0BCF1000FDCBF40F008001A
:1017B00040F008014FF000000FBCBDE810400BF1F5
:1017C000010BBBF1010F08BF5FEA170722BF12F13F
:1017D000010211F101014FF0004143F1000300F05B
:1017E000004043EA00007047F9D35708D0E746EAC3
:1017F000064613F1400F4FEA16461FDD13F1200F86
:10180000DFBF16430A46002120335B42BED0C3F13E
:10181000200746EA064602FA07F74FEA164646EA66
:101820000706C3F1200722FA03F201FA07F721FAAB
:1018300003F14FF0000342EA0702A7E746EA020677
:1018400046EA06464FEA164646EA0106BCBF46EAA5
:101850000646360C4FF000034FF000024FF0000137
:1018600094E72DE9804C9A46934670B491E838008D
:1018700007C831EA400C48BF34EA430C03D5FFF7F0
:10188000E6FDFFF780FFF0BCBDE8008C2DE9804C41
:101890009A46934670B491E8380007C810F0804F1C
:1018A00008BF13F0804F03D100F005F8FFF76BFF7E
:1018B000F0BCBDE8008C20F07F4780EA030023F0F5
:1018C0007F4C07EB0C03A3F57C5300F00040A3F121
:1018D000FE0392F0000F00F0B38095F0000F00F0CF
:1018E00077802DE901494FEA11404FEA144621EA79
:1018F000004800FB06FC24EA064708FB06F607FB47
:1019000008F800FB07F718EB06484CEB164C4FEABB
:10191000124B18EB07484FEA15464CEB174022EAEA
:101920000B4E0BFB06FC25EA06470EFB06F607FBF3
:101930000EFE0BFB07F71EEB064E4CEB164C4FF062
:1019400000061EEB074E4CEB174B18EB0B0840F153
:10195000000018EB0E0B58EB000840F100008F1A46
:101960004FF000013CBFC943661B14BFB5EB040C2C
:1019700000213CBFC943F61B4FEA17444EEA8E0EC6
:1019800027EA04454FEA1C4704FB07622CEA074C90
:1019900005FB07F70CFB05F604FB0CFC16EB0746F2
:1019A00042EB174216EB0C4642EB1C421BEB0606C1
:1019B00058EB0202414146EA9E0601D5BDE8018985
:1019C000B619524141EB0101A3F10103BDE80189C0
:1019D0004FEA14454FEA114724EA054621EA074C2D
:1019E00005FB07F406FB07F70CFB06F105FB0CFCF7
:1019F00011EB074144EB17444FEA124711EB0C413E
:101A000044EB1C4422EA074C05FB07F206FB07F7F0
:101A10000CFB06F605FB0CFC16EB074642EB1742E7
:101A200016EB0C4642EB1C456A1854F1000148BF06
:101A30007047B619524141EB0101A3F10103704710
:101A400095F0000F37D04FEA11424FEA144721EAD0
:101A5000024624EA074C02FB07F106FB07F70CFBE2
:101A600006F402FB0CFC14EB074441EB17414FEA70
:101A7000154714EB0C4441EB1C4125EA074C02FBD3
:101A800007F506FB07F70CFB06F602FB0CFC16EB52
:101A9000074645EB174516EB0C4645EB1C42121961
:101AA00051F1000148BF7047B619524141EB0101A5
:101AB000A3F1010370474FEA14454FEA114724EAA6
:101AC000054621EA074C05FB07F106FB07F70CFB6F
:101AD00006F24FF0000605FB0CFC12EB074241EB4F
:101AE000174112EB0C4251EB1C4148BF7047921852
:101AF00041EB0101A3F10103704710B50146806B72
:101B0000026C12F0500F05D0026CD20626D501F0FF
:101B100053F810BD016C41F40071016401688A68DA
:101B200012F0405F17D1027EAAB9CA6A12F4700F90
:101B300002D08A6852050ED44A6822F020024A6018
:101B4000016C21F480710164016CC90403D4016C3F
:101B500041F00101016401F02DF810BD806BC26CF1
:101B6000BDE810400846104710B5806B4021016465
:101B7000416C41F00401416401F01EF810BD10B544
:101B8000806B01F018F810BD464910B54A6822F480
:101B900040324A604A6843681A434A6001684A68AA
:101BA00022F480724A6001684A68036942EA0322AB
:101BB0004A6001684A6822F040724A6001684A68D7
:101BC00083681A434A6001688A6822F400628A6066
:101BD00001688A68C3681A438A60816A6FF070621C
:101BE000D14201688A6822F070628A6001688A685E
:101BF0000CD0836A1A438A6001688A6822F04052D6
:101C00008A6001688A68C36A1A4301E022F0405280
:101C10008A6001688A6822F002028A6001688A6824
:101C2000037E42EA43028A6090F82010002901688E
:101C30004A680FD042F400624A6001684A6822F4A0
:101C400060424A6001684A68174C436A04EB4333B8
:101C50001A4301E022F400624A600168CA6A22F471
:101C60007002CA620168CA6A838B104C04EB03538A
:101C70001A43CA6201688A6822F400728A600168A5
:101C80008A6890F8303042EA43228A6001688A68A4
:101C900022F480628A6001688A68406942EA802092
:101CA000886010BD0023014000E0FFFF0000F0FF4E
:101CB0004FF416724FF4AF63904209DA914201DAA1
:101CC00044207047994201DD42207047432070470D
:101CD000984209DD914201DA46207047994201DDC0
:101CE0004820704747207047914201DA45207047ED
:101CF000994201DD41207047492070476FF03B0257
:101D0000904209DA914201DA442070473C2901DD12
:101D100042207047432070473C2809DD914201DA98
:101D2000462070473C2901DD482070474720704716
:101D3000914201DA452070473C2901DD412070477E
:101D400049207047FEE710B5C378002202219B1C92
:101D500003E0445C491C224492B28B42F9DCD0433C
:101D6000C0B210BD014801F04BB900008035002021
:101D7000014801F045B90000A0360020014801F0FB
:101D80003FB90000E0290020014801F039B9000006
:101D900000370020014801F033B90000202B00205B
:101DA000014801F02DB90000E0350020014801F0A4
:101DB00027B9000040360020014801F021B9000099
:101DC000402A002001681823CAB2103AB2FBF3F28D
:101DD000054B6FF30901032A9B5CC36500D9091DFC
:101DE00081650846704700009419010810B5014646
:101DF00000208B698A6A4FF0C07453B1B3F5005F5D
:101E000015D072B1012A0CD0022A0AD0032A09D1B6
:101E100004E01AB1012A06D0022A03D1C96AC90115
:101E200000D5012010BDC96AA142FAD010BD002A18
:101E3000F7D0012AF2D0022AF3D0032AF3D010BD42
:101E400030B50468256825F4802525600468636042
:101E50008368402B036803D099600068C26030BD7E
:101E60009A600068C16030BD10B500210A4600EBE1
:101E70008103491CC3F884241029F8D300214FF4AE
:101E800000734418491C84F81C229942F9D302704B
:101E9000427001218170C0F8C4240176402383710F
:101EA000427680F81C2480F81D1480F81F2480F8E6
:101EB0001E24002010BD70470BF0DCBE05480168F1
:101EC000C90405D581140160034800680CF0C4B84A
:101ED00070470000143C01405000002072B6FEE73D
:101EE000002229B101291AD002291BD04FF44072D7
:101EF0000E490B6823F440730B600B6813430B60AF
:101F00000A6822F0F8020A600A68022303EBC000A4
:101F100002430A60086840F48030086070474FF45C
:101F20008072E5E74FF40072E2E70000103C0240E7
:101F30001348016889050FD5016821F4007101601B
:101F4000016841F400610160016821F400610160F1
:101F5000016841F400710160016849050FD501680D
:101F600021F480610160016841F4805101600168E1
:101F700021F480510160016841F480610160704783
:101F8000003C024008490A6822F440720A600A686C
:101F900042F004020A600A684FF4803343EA0020EA
:101FA00002430A6070470000103C0240064A136872
:101FB00023F44073136013681360136843F0010344
:101FC0001360017070470000103C0240094910B5D1
:101FD0000C6824F440740C600C6844F440740C6089
:101FE0000C6844F001040C600260BFF36F8F436023
:101FF00010BD0000103C0240074A136823F44073F0
:102000001360136843F480731360136843F0010393
:102010001360018070470000103C0240074A1368BB
:1020200023F440731360136843F400731360136860
:1020300043F001031360016070470000103C024050
:1020400017490868C206174805D5C26942F0100250
:10205000C26110220A600A68920605D5C26942F080
:102060000802C26120220A600A68520605D5C269C8
:1020700042F00402C26140220A600A68120605D5D5
:10208000C26942F00202C26180220A600A689207B5
:1020900005D5C26942F02002C26102200860704783
:1020A0000C3C02401438002070B511490446002051
:1020B000C86101F0C5FA05460E4E09E0601C07D064
:1020C00024B101F0BDFA401BA04201D9032070BD2C
:1020D0003068C003F2D43068C00701D001203060FE
:1020E000306810F0F200F2D0FFF7AAFF012070BDB7
:1020F000143800200C3C0240143090EC040A704765
:1021000010B586B00446142206496846FEF7BCFBAB
:102110006946204600F09AF8204600F005F806B01F
:1021200010BD00009C190108114910B51EC900F12D
:10213000140CB2EE040A8CE81E0000214162816298
:102140000122C16280F8302080ED0D0AC163016474
:1021500041648164C164016580F85410816580F830
:102160005C1080F85D10016680F8641010BD0000FE
:10217000B019010870B504462DED048BB6EE009A37
:10218000F0EE408A90ED071AF0EE490A90ED080A49
:1021900041EE410AD0ED051A40EE400A21EE800AD8
:1021A000D0ED061A01EE810A07F096FFB0EE408AE4
:1021B000B0EE680A00F0E6FA38EE400A002560EE5C
:1021C000098AB0EE680A08F0AFF8B0EE408AB0EEC7
:1021D000680A08F083FCB1EE401A94ED053AB0EEBF
:1021E000480AD4ED061A60EE034A00EE905AD4ED88
:1021F000072A94ED082A40EEE14A20EE214A00EE3B
:10220000905A60EE223A20EE020A00EE834A40EE37
:10221000E24A40EEC23A00EEA20A00EE824A41EEE5
:10222000424A40EE833A00EEE10A01EE624AC4ED12
:10223000054A41EE213A01EE030A84ED064AC4ED57
:10224000073A84ED080ABDEC048B70BD70B50446F6
:102250002DED028BB6EE008A0878207091ED010A10
:10226000DFED268A84ED010A91ED020A0D46B5EEF6
:10227000C00AF1EE10FA28D0286930B300F082FAD3
:1022800008F02CFC20EE080AF0EE000A08F0F4F842
:1022900084ED020A95ED030AB5EEC00AF1EE10FADC
:1022A00016D02869A0B100F06DFA08F017FC20EEF6
:1022B000080AF0EE000A08F0DFF884ED030A286946
:1022C000206194F8300030B109E0C4ED028AE1E702
:1022D000C4ED038AF3E794ED010A84ED0D0A94ED51
:1022E000010AF2EE040A30EEC00AF0EE080A80EEAF
:1022F000201A84ED0E1ABDEC028B70BDFFFF7F7FAC
:102300002DE9F04F04462DED0E8B83B0F0EE618A7F
:10231000B0EE429AB0EE62DA0025B0EE64AAF0EEBA
:10232000439AC0ED098A80ED0A9A80ED0BDA90F8A5
:102330003000F0EE63AAB0EE44BAF0EE40BAB0EE70
:1023400060CAF0EE41CA012814D194ED0D0AD4ED13
:102350000E0A00EECA0A84ED0D0AD4ED010AB4EEAD
:10236000E00AF1EE10FA05D2C4ED0D0A84F83050FF
:1023700084F85C50204603F0B1FFB0EE408AF0EEE6
:1023800060DAB0EE41EAAA464FF001080095D34664
:1023900084F85480B0EE4D1AF0EE490AB0EE680AA7
:1023A00000F0F5FAE8BB2169A06D884211D904F16B
:1023B0001800666907C80746894620460192FFF75C
:1023C000B3FE019AA565C4E90792C4E9056784F8DC
:1023D0005C80B0EE4D1AF0EE490AB0EE680A00F0EB
:1023E00002FBF0EE4E2AB0EE6D2AF0EE481A00F035
:1023F000ACFA04F13C0080EC030A94F830000128A8
:1024000008D000F0D7FAD4ED020AB4EEE00AF1EEFB
:1024100010FA22D804F13C0007C882468B4600928D
:1024200000E009E084F85450A06D0A2801D30A2185
:1024300000E00021401AA0652E46B0EE690A37463A
:10244000B94684F85D80B0EE4B1AF0EE6A0AB0EE41
:1024500040DA00F09CFA18B15DE0A06D401CEAE79C
:1024600084F864502169206E884214D92078F0EEF7
:102470004B2AB0EE6A2AF0EE4D1AB0EE4E1AF0EE8C
:102480006D0AB0EE480A00F0F7F82046FFF772FE3A
:10249000256684F86480204603F05EFFF0EE409AE3
:1024A000B0EE609AF0EE418AF0EE4B2AB0EE6A2A66
:1024B000F0EE4D1AB0EE4E1AF0EE6D0AB0EE480A8C
:1024C00000F043FA00F08FFAF0EE682AB0EE492AE5
:1024D000F0EE691A00F039FA04F1480080EC030AC2
:1024E00094F83000012808D000F064FAD4ED030A13
:1024F000B4EEE00AF1EE10FA7ED8D4E91370A66CBF
:10250000814684F85D50206E0A2801D30A2100E03C
:102510000021401A2066B6EE000A00F033F9F0EE12
:10252000401AB0EE6C1AF0EE4C0AB0EE6B0A00F0F6
:102530004CFAB0EE409AF0EE608AB0EE418A02EEBC
:10254000909A02EE107A01EE906A9DED001A00EE6C
:1025500090BA00EE10AA00F0F1F9D4ED0D1A00F0D7
:1025600034FAF0EE401AB0EE602AF0EE412AB0EEF6
:10257000481AF0EE680AB0EE490A00F0DFF994ED6F
:10258000058AD4ED069A94ED079AD4ED088AF0EE08
:102590004A1A00F01AFA69EEC01A28EE002A68EE0C
:1025A000202A49EE601A09EE012A49EEC12A48EEB6
:1025B000C11A28EE011A08EEE02A48EE802A09EE38
:1025C000A01A79EE820A09EE401A38EE210A79EE55
:1025D000221AF0EE609A84ED050AC4ED060A38EE80
:1025E000811AC4ED071AB0EE408A84ED081AB0EEE5
:1025F000619AF0EE418A00E01BE028EE080A09EE3D
:10260000A90A09EE090A08EEA80A00F0C3F868EE64
:10261000000A29EE801A69EE001A28EE800A84ED7D
:10262000080A1434C4EC030A03B0BDEC0E8BBDE8F9
:10263000F08F206E401C6DE7002110B5F0EE434A8C
:10264000044604EE101A03EE901A03EE101AFFF778
:1026500057FE94F8300001280AD194F85C00002855
:1026600006D12046BDE810409FED020AFFF782BD6B
:1026700010BD00000000000010B52DED088BB0EE7D
:10268000618AF0EE428AB0EE629AB0EE40BADFEDB7
:102690003B9AF0EE60AAB0EE41AA40B1012827D0E3
:1026A00002285AD09FED360ABDEC088B10BDF0EE23
:1026B000492AB0EE682AF0EE481AB0EE4A1AF0EE57
:1026C0006A0AB0EE4B0A00F051F900F0A7F9B0EE3B
:1026D000408AF0EE4A2AB0EE6A2AF0EE4B1A00F079
:1026E00045F900F09BF9F0EE400AB0EE480A2FE001
:1026F000F0EE492AB0EE682AF0EE481AB0EE4A1A17
:10270000F0EE6A0AB0EE4B0A00F030F900F086F9FC
:10271000B0EE409AF0EE608AB0EE418AF0EE4A2ABE
:10272000B0EE6A2AF0EE4B1A00F020F900F076F9CC
:10273000B0EE40AAFFEE001AB0EE481AF0EE680ABA
:10274000B0EE490A00F048F9F0EE400AB0EE4A0A4D
:1027500007F0C2FC20EE290AA6E7FFEE001AB0EE51
:102760004A1AF0EE6A0AB0EE4B0A00F035F9B0EE04
:1027700040BAF0EE60AAB0EE41AA98E7E02E6542BA
:1027800000000000DFED020A20EE200A7047000082
:1027900035FA8E3C10EE100A9FED091A0749A1EB9D
:1027A000600020EE010A00EE900A20EE201A9FED54
:1027B000050A01EE600A20EE200A704712141F5F1E
:1027C00012D3363FFF51D83F00EE101AB7EE001A71
:1027D0000022F8EE400A81EE200ADFED060A20EE24
:1027E000200A80ED000AC0E90112C0E9031242612B
:1027F00082617047DB0FC94090ED042A90ED053AE5
:10280000D0ED062A30EE420A70EEC30A31EE621AAB
:10281000204AF0EEC01A11EE901A91420FDCF0EE51
:10282000601AF0EEE11A11EE901A914207DCF0EE18
:10283000411AF0EEE11A11EE901A914201DD0021E9
:1028400006E0D0E90121914204D2C26822B9491CB4
:1028500081607047C16809B1C168491EC160D0ED8F
:10286000001AF0EE403AB0EE604AF0EE414A63EEF4
:10287000A13A24EE214A64EEA11A32EE232A33EE65
:10288000043A72EEA11A80ED042A80ED053AC0EDFB
:10289000061A70470000A04010B52DED088BB0EE71
:1028A000419AF6EE009AB0EE40AA49EE499AF0EE4F
:1028B000608AB0EE618A2AEE280AF0EE690A09EE13
:1028C000080A48EEE80A07F007FC9FED19BAF0EE97
:1028D000000A60EE0BBA2AEE090A08EE680A20EE3A
:1028E000200A10EE100A10F1814F02D39FED110A59
:1028F00009E010EE100AB0F17E5F02DB9FED0E0AD8
:1029000001E007F053FB60EE0BAA2AEE080AF0EE96
:10291000690A48EE480A08EE890A07F0DDFB20EE56
:102920000B1AB0EE6B0AF0EE6A0ABDEC088B10BD14
:10293000E02E6542DB0FC9BFDB0FC93F30EE210A35
:1029400070EE820A31EE221A704720EEA23A61EE52
:10295000213A01EE423A40EE623A20EE021A00EECF
:10296000E11AB0EE430AF0EE630A704720EEA23A95
:1029700061EE213A01EE423A40EE623A20EE021A4E
:1029800000EEE11AB0EE430AF0EE630A7047B5EECE
:10299000C00AF1EE10FA0BD1F5EEC00AF1EE10FA12
:1029A00006D1B5EEC01AF1EE10FA01D10120704740
:1029B0000020704720EE000A60EEA00A21EE011A06
:1029C00030EE200A30EE010A704720EE210A60EE58
:1029D000A10A21EE211A704720EE210A60EEA10A19
:1029E00021EE211A704710B52DED048BB0EE418A0F
:1029F000F0EE608AB0EE409AFFF7DCFFFFF7CAFE08
:102A0000F0EE401AB0EE481AF0EE680AB0EE490A4D
:102A1000BDEC048BBDE81040FFF7D7BF60EE001A95
:102A200020EEA02A61EE012A0C4971EE821A71EEA5
:102A3000A21ADFED0B2A11EE900A61EEA21AA1EBA9
:102A4000600002EE100A61EE822ADFED061A42EE05
:102A5000C21A61EE821AFFF7BFBF000012141F5F97
:102A600012D3363FFF51D83F78B50024009490F838
:102A70003C20012A19D0012280F83C200A68072551
:102A80000368092A13D9DE680A3A02EB420295402C
:102A9000AE43DE600A788B680A3A02EB420293404A
:102AA0000268D5682B43D36010E0022078BD1E6910
:102AB00002EB42029540AE431E610A788B6802EB3E
:102AC00042029340026815692B4313614A681F252F
:102AD000072A13D203685E6B521E02EB82029540F6
:102AE000AE435E630A8893B20A79521E02EB8202F9
:102AF00093400268556B2B43536327E003680D2A0C
:102B000012D21E6BD21F02EB82029540AE431E63AF
:102B10000A8893B20A79D21F02EB820293400268BC
:102B2000156B2B43136311E0DE6A0D3A02EB820250
:102B30009540AE43DE620A8893B20A790D3A02EB01
:102B4000820293400268D56A2B43D362164B056814
:102B5000144A9D4206D10D68122D03D1556845F4E3
:102B60008005556005689D4218D10B68102B01D077
:102B7000112B13D1536843F40003536009681029E3
:102B80000CD10A490A4A0968B1FBF2F101EB810153
:102B9000490000E0491E00910029FBD180F83C402B
:102BA000002078BD0023014000200140700000207B
:102BB00040420F0070477047704770B504004FF0F7
:102BC000000603D0206C002510B107E0012070BD85
:102BD000204600F01DF8656484F83C50206CC00667
:102BE00010D4206C20F4885040F00200206420466D
:102BF000FEF7CAFF6564206C20F0020040F001007F
:102C0000206400E0012684F83C50304670BD00008E
:102C100070B586B0064614216846FDF791FE1D4941
:102C20003068884234D11C480025016841F4807125
:102C30000160006800F4807005901748143801683E
:102C400041F0020101600068694600F00200059051
:102C5000012000900320CDE90105104800F0FEFBA3
:102C6000104C0F48C4E900050015A560C4E90350E5
:102C7000400060618000A0614011C4E90705204662
:102C8000656200F08DFA08B1FFF728F9B463A66316
:102C900006B070BD002001404438024000040240EC
:102CA000106402402C29002018B50022009290F8F0
:102CB0003C10012907D0012180F83C1001688B6885
:102CC000DB0702D011E0022018BD8B6843F001033E
:102CD0008B602E492E4B0968B1FBF3F101EB4101EA
:102CE00000E0491E00910029FBD101688B68DB07D9
:102CF00042D0036C40F20164A34343F48073036445
:102D00004B685B0505D5036C23F4005343F48053F3
:102D10000364036CDB0404D5436C23F006034364B3
:102D200000E0426480F83C201A4A6FF022030B60F6
:102D300051680068CA06184906D0884224D18168C3
:102D400011F0405F13D01FE08842F8D0134A904240
:102D500003D1D1F80423D206F1D0114A904213D105
:102D6000D1F8041301F01F011029E8D30CE08168A9
:102D700041F08041816007E0016C41F01001016485
:102D8000416C41F001014164002018BD7000002039
:102D900040420F000023014000200140002101407B
:102DA00000220140F8B500230446009390F83C004F
:102DB000012807D0012084F83C0020688568ED07D1
:102DC00002D011E00220F8BD856845F0010585605C
:102DD0004048414D0068B0FBF5F000EB400000E0DA
:102DE000401E00900028FBD120688568ED0503D5C2
:102DF000856825F48075856020688568ED075FD05B
:102E0000256C40F20166B54345F480752564406841
:102E1000400505D5206C20F4005040F4805020641B
:102E2000206CC00404D5606C20F00600606400E0F3
:102E3000636484F83C30A36B2948284DD863A36BA6
:102E400028481864A36B2848D86423686FF02200D0
:102E500018602068436843F080634360206883689B
:102E600043F480738360134620680A46A66B00F122
:102E70004C01304600F0FEF968681C49C006206825
:102E800006D0884224D1816811F0405F13D01FE042
:102E90008842F8D0164A904203D1D1F80423D206D2
:102EA000F1D0144A904213D1D1F8041301F01F015C
:102EB0001029E8D30CE0816841F08041816007E08F
:102EC000206C40F010002064606C40F001006064F1
:102ED0000020F8BD7000002040420F000023014098
:102EE000FB1A00087F1B0008691B00080020014036
:102EF000002101400022014010B5040002D0607999
:102F000010B106E0012010BD00202071204600F025
:102F100005F801206071002010BD000008B50068B0
:102F20000649884208D10648016841F48051016091
:102F3000006800F48050009008BD0000003002409E
:102F4000303802402DE9F0410446876D00F078FBEF
:102F5000054694F835000026022806D080206065DA
:102F600084F834600120BDE8F0812068016821F018
:102F7000160101602068416921F080014161206CE7
:102F800008B9A06C20B12068016821F00801016037
:102F90002068016821F0010101600CE000F050FBA5
:102FA000401B052807D920206065032084F83500E0
:102FB00084F83460D7E720680068C007EED194F841
:102FC0005C103F208840B860012084F8350084F808
:102FD00034600020C7E790F83510022903D0802123
:102FE000416501207047052180F8351000680168AF
:102FF00021F00101016000207047406D7047000022
:103000002DE9F84304464FF00009CDF800906348DD
:103010004FF41651A56D0068B0FBF1F72E6894F8D7
:103020005C20082101FA02F030420FD020680268CB
:1030300052070BD5026822F00402026094F85C008B
:103040008140A960606D40F00100606594F85C10FB
:103050004FF0010808FA01F0304208D021684969B0
:10306000090604D5A860606D40F00200606594F820
:103070005C1004208840304208D021680968890724
:1030800004D5A860606D40F00400606594F85C10A1
:1030900010208840304218D021680968090714D5EB
:1030A000A86020680168490304D50068000308D5BA
:1030B000A16C07E00168C90503D4016821F008018B
:1030C0000160216C09B12046884794F85C102020EB
:1030D0008840304231D021680968C9062DD5A860E2
:1030E00094F8350005282068016806D0490347D5C3
:1030F000006800031DD4616C1CE021F01601016022
:103100002068416921F080014161206C08B9A06C00
:1031100020B12068016821F00801016094F85C107A
:103120003F208840A86084F8358084F83490216D71
:103130001FE0E16B09B120468847606D00282BD065
:10314000606DC00714D0052084F835002068016840
:1031500021F0010101600098401C0090B84203D8A2
:1031600020680068C007F6D184F8358084F8349070
:10317000E16C002910D001B02046BDE8F0430847BB
:103180000168C905D5D4016821F01001016084F8F7
:10319000358084F83490CCE7BDE8F88370000020D7
:1031A0002DE9F041044600F04BFA05465CB10220DF
:1031B00084F83500002684F834602068016821F026
:1031C000010101600DE00120BDE8F08100F038FA56
:1031D000401B052805D920206065032084F83500B0
:1031E000F2E720680068C007F0D121680A6820482B
:1031F0000240D4E901031843D4E903352B431843B3
:1032000063691843A3691843E3691843236A1843A1
:103210001043626A042A03D1D4E90B231A431043F2
:10322000086020684069656A20F0070128460D4360
:10323000012704280CD1A06A0543E06A40B120466A
:10324000FEF7D4FD20B14020606584F83570BAE700
:10325000206845612046FEF7B5FD94F85C203F21CB
:1032600091408160666584F835700020ACE700000D
:103270003F8010F02DE9F0410446866D90F834004F
:10328000002501280DD0012084F8340094F8357011
:103290000020012F07D084F8340002252846BDE81D
:1032A000F0810220FBE7022784F835706065204634
:1032B000FEF7C6FD94F85C103F208840B06020689F
:1032C000016841F016010160206C20B1206801689E
:1032D00041F0080101602068016841F001010160CE
:1032E000DCE7000070B5044600F0AAF90546601C52
:1032F00002D004480078044400F0A2F9401BA04228
:10330000FAD370BD740000202DE9F047044622482E
:103310000E46017E01290AD00121804601764CF239
:1033200050394846FEF7C0FE020003D02FE00220CD
:10333000BDE8F0874FF0FF3030602068174F01285C
:1033400001D0A5681CE0207C6168FEF71BFE4846A2
:10335000FEF7AAFE0246386820F00400386014E048
:10336000217C2846FEF7BCFD4846FEF79DFE020084
:10337000386820F0FA00386001D0356005E06D1C37
:10338000D4E902100844A842EAD8FEF7D1FD002192
:1033900088F818101046CBE714380020103C024083
:1033A0000348016841F000410160002070470000BF
:1033B000103C02402DE9F0471B4E05461446307E76
:1033C0001F468946012808D0012030764CF250383B
:1033D0004046FEF769FE18B114E00220BDE8F08710
:1033E0009DB1012D16D0022D19D022463B464846EC
:1033F000FEF7ECFD4046FEF757FE0C490A6822F046
:1034000001020A6000213176E8E7E1B24846FEF7A2
:10341000CDFDEFE7A1B24846FEF7EEFDEAE7214613
:103420004846FEF7FBFDE5E714380020103C02405B
:10343000074900200A68002A09DA054A054B0C3AB8
:103440001360054B13600968002900DA01207047FA
:10345000103C024023016745AB89EFCD2DE9F84FC1
:10346000DFF89C910022A9F1040B03274FF00F0C09
:1034700009F1040AABF1040E01250B6895402B40BD
:10348000AB426ED10C7904F00304012C01D0022C64
:1034900015D18668540007FA04F826EA0806D1F820
:1034A0000C8008FA04F848EA0608C0F80880446866
:1034B000AC430D79C5F300159540254345600C7963
:1034C000E443A40708D0C568540007FA04F6B543DE
:1034D0008E68A6402E43C6600C7904F00304022CCB
:1034E00011D1D40800EB8406356A5407E40E0CFAB7
:1034F00004F825EA0805D1F8108008FA04F848EA2B
:103500000508C6F820800568540007FA04F6B5439C
:103510000E7906F00306A6402E4306604C6814F4AC
:10352000403F66D0374C256845F4804525602468C7
:1035300022F0030504F480440094334C05EB0408A6
:10354000D8F808589407260F0CFA06F4A5432F4C18
:10355000A04201D1002424E02D4CA04202D101243C
:103560001FE046E02B4CA04201D1022419E02A4C76
:10357000A04201D1032414E0284CA04201D104242C
:103580000FE0274CA04201D105240AE0254CA042BF
:1035900001D1062405E0244CA04201D1072400E01B
:1035A0000824B4402C43C8F80848D9F800404D46D8
:1035B0004E689C43F60200D51C432C60DAF80040AC
:1035C00055464E689C43B60200D51C432C60DBF880
:1035D00000405D464E689C43B60300D51C432C60FA
:1035E000DEF8004075464E689C43F60300D51C4348
:1035F0002C60521C102AFFF43FAFBDE8F88F00008A
:10360000083C0140443802400030014000000240C4
:103610000004024000080240000C0240001002407A
:103620000014024000180240001C024000690840DB
:1036300000D0012070470AB1816170470904FBE79F
:10364000014880687047000074000020D0F8000333
:1036500005F03ABDD0F8000305F04CBD006806F057
:103660008DB9006806F08EB901EB410202EBC10191
:1036700000EB810090F86000704701EB410202EB23
:10368000C10100EB8100006D704710B5044690F851
:10369000F802012809D0012084F8F802206806F019
:1036A0007CF9002084F8F80210BD022010BD2DE93D
:1036B000FE430546DDE90B7095F8F842DDF828C0B9
:1036C000012C1ED001EB410404EBC1044FF00109B1
:1036D00005EB840485F8F892002684F83D6084F8B0
:1036E0003830A4F8400084F8391084F83F7002F0B4
:1036F0007F0884F83A805FEA026805D584F83B9039
:1037000004E00220BDE8FE8384F83B6084F83CC0FE
:10371000CDF800C0CDE90170286806F0A0F985F861
:10372000F862EFE7D0F8000305F05EBD2DE9F00385
:103730000D4601EB4501DDE90864DDE9067901EBA1
:10374000C50100EB81014FF0020C81F83B2081F8AC
:103750003F3057B181F842C000246BB1012B2DD00E
:10376000022B11D0032B15D10EE04FF0030881F886
:10377000428081F83D40EFE7012F0BD152B9D6B915
:10378000012281F8552003E0AAB191F85420AAB192
:1037900081F842C0C1F84490CE6481F860400C6565
:1037A00081F8395081F86140027C0068BDE8F0037F
:1037B000383106F0DBB991F85520E8E781F842404E
:1037C000E8E72DE9F04104460068064606F0E1F816
:1037D000012875D1206806F0EAFA002870D0206828
:1037E00006F0E5FA800203D521684FF40010486125
:1037F000206806F0DCFAC00203D521684FF480107F
:103800004861206806F0D3FA400103D521684FF0E3
:1038100080604861206806F0CAFA800702D52168F6
:1038200002204861206806F0C2FA800015D52168A0
:103830004FF000504861D6F84004C0070DD1102168
:10384000304606F07BF8304606F05AF80121206831
:1038500006F092FA2046FFF7FDFE206806F0A7FA70
:10386000C00102D5204602F0A9FC206806F09FFAAC
:10387000000705D5204600F0C2F8216808204861FD
:10388000206806F094FAC043C0060CD42068816911
:1038900021F010018161204602F0DAFC2068816984
:1038A00041F010018161206806F081FA800123D582
:1038B000206806F057F9074600254FF0010814E08C
:1038C0001AE005F00F0108FA01F038420CD006EBBF
:1038D0004510D0F80005E9B20004204602D502F0F8
:1038E00065FA01E002F05CFB6D1CA068A842E8D814
:1038F00021684FF000704861BDE8F08170B58AB072
:10390000040005D094F8F9022568002618B107E0F4
:1039100001200AB070BD84F8F862204600F028F853
:10392000032084F8F902E86BC00500D42661206802
:1039300005F0B2FF04F1100128220D466846FCF79D
:10394000A3FF94E80F0005F04DFF0121206806F069
:103950006AFA282229466846FCF796FF94E80F0089
:1039600006F0A2F9012084F8F9020020D1E7000056
:1039700010B586B0044614216846FCF7E1FF1749EC
:103980002068884227D1164C0020216841F00201AE
:103990002160216801F0020105914FF4404100913E
:1039A0000221CDE90110032003900C200490694608
:1039B0000C48FFF753FD206840F00050206020685D
:1039C000002200F00050059005214D2000F0A2FBE0
:1039D0004D2000F091FB06B010BD00000000044037
:1039E0003038024000040240D0F8000305F019BC52
:1039F000D0F8000305F019BC006806F0FBB9D0F858
:103A0000000305F0B7BB10B5044690F8F802012892
:103A10000DD0012084F8F8020121206805F054FF40
:103A2000206805F067FF002084F8F80210BD02202E
:103A300010BD10B5044690F8F802012809D0012005
:103A400084F8F802206806F01CFA002084F8F802D6
:103A500010BD022010BD000070B5040025D094F800
:103A60003D00002520B984F83C50204600F04CFA77
:103A7000242084F83D002068016821F001010160E4
:103A80002068016841F4004101602068016821F468
:103A90000041016000F032FC4D4B6168994201D851
:103AA0004C4900E04C49884201D2012070BD4B498D
:103AB0002268B0FBF1F1566826F03F060E435660CF
:103AC00062689A4206D94FF4967251434FF47A7263
:103AD000B1FBF2F12268491C166A26F03F06314319
:103AE00011626168994210D84900401EB0FBF1F2A2
:103AF000521CC2F30B02042A01D2042022E0B0FBC4
:103B0000F1F0401CC0F30B001CE0A268F2B301EB23
:103B1000C10303EB0116431EB3FBF6F35B1C43F436
:103B200080431B0549D092B301EBC10202EB0111A6
:103B3000401EB0FBF1F0401CC0F30B0040F480408D
:103B400040F400402168CA694CF6FF739A43104361
:103B5000C861D4E9071001432068026822F0C0025E
:103B600011430160D4E9030101432068826848F2EF
:103B7000FF339A4311438160D4E905100143206863
:103B8000C26822F0FF021143C16001E00EE016E0BE
:103B90002068016841F0010101602564202084F85B
:103BA0003D00256384F83E50002070BD01EB4106C6
:103BB000431EB3FBF6F35B1CB3E70120C2E701EB46
:103BC0004101401EB0FBF1F0401CC0F30B00B7E711
:103BD000A086010080841E0000093D0040420F00C5
:103BE0002DE9FF4F83B09A46DDE9119793460446CD
:103BF000DDF84080FFF724FD054694F83D002028BD
:103C000070D11923012271492046009502F008FD68
:103C10000028F5D194F83C00012863D0012084F8F5
:103C20003C0020680168C90703D1016841F0010127
:103C300001602068016821F400610160222084F89D
:103C40003D00402084F83E0000262664C4F824800D
:103C5000A4F82A90608D20855D48E062CDE900756A
:103C600053465A462046049902F0E2FB00287CD1D4
:103C7000208DD0B1012821D00228206824D04169AC
:103C800080690090208D032869D801282BD05149E4
:103C900002283B464FF00002009559D08846204646
:103CA00002F0BEFC002860D13CE0206841698169D7
:103CB0000091016841F40071016077E020680168BB
:103CC00021F480610160F0E7016821F48061016006
:103CD0002068016841F400610160206841698069E1
:103CE000009063E06FE02A463946204602F018FD56
:103CF00098BB20680069616A08704EE0206801681E
:103D000041F40071016020680069616A0870606AAE
:103D1000401C6062218D491E2185618D491E61858F
:103D2000216838E02068016821F480610160206822
:103D30000069616A0870606A401C6062208D401EE4
:103D40002085608D401E60853B46002241460095DF
:103D5000204602F065FC00B9D0E706E0FFE72A46FE
:103D60003946204602F0DCFC18B1012007B0BDE85E
:103D7000F08F20680069616A0870606A401C6062A8
:103D8000218D491E2185618D491E618521684A6901
:103D9000D24352070AD409690170606A401C60620C
:103DA000208D401E2085608D401E6085208D00285E
:103DB0007FF468AF202084F83D0084F83E6084F8EA
:103DC0003C600020D2E70220D0E700000200100093
:103DD0000000FFFF040001002DE9FF4F83B09A4669
:103DE000DDE9119793460446DDF84080FFF728FC93
:103DF000054694F83D0020287FD11923012240492F
:103E00002046009502F00CFC002876D194F83C0086
:103E1000012872D0012084F83C0020680168C9079D
:103E200003D1016841F0010101602068016821F4BB
:103E300000610160212084F83D00402084F83E00AC
:103E400000262664C4F82480A4F82A90608D20857A
:103E50002C48E062CDE9007553465A462046049945
:103E600002F064FB70B930E02A463946204602F081
:103E70008CFC58B1206C042804D12068016841F4FE
:103E800000710160012007B0BDE8F08F606A216811
:103E900000780861626A521C6262208D401E80B206
:103EA0002085618D491E618521684B69DB435B0775
:103EB0000BD468B110780861606A401C6062208D84
:103EC000401E2085608D401E6085208D0028CBD14E
:103ED0002A463946204602F07DFB0028CAD154F814
:103EE0003D0B016841F400710160202004F81E09B7
:103EF000E67766770020C6E7FFE70220C3E7000009
:103F0000020010000000FFFF2DE9F04387B00446D7
:103F100014216846FCF714FD2D492068884254D1CD
:103F20002C480025016841F00201016000686946E3
:103F300000F0020005904FF44060009012200190C4
:103F40000120029003200390042004902248FFF7F0
:103F500085FA20481030016841F480010160006852
:103F60001F4E00F4800005901C4830604FF06067E1
:103F7000C6E901754FF48068C6E9035875614FF4CE
:103F80004039B561C6E9075930467562FFF708F94F
:103F900008B1FDF7A3FFA663B463114E0F48603666
:103FA0007830E6E802074020A6E821010C4846F8F0
:103FB00014596030B561C6E907597562FFF7F0F82A
:103FC00008B1FDF78BFF6663B46307B0BDE8F0830B
:103FD0000058004030380240000402404060024077
:103FE000E02900200248816802781144816070470E
:103FF000740000200B4810B5016841F400710160A5
:10400000016841F480610160016841F480710160E0
:10401000032000F09FF8002000F006F800F050F8B0
:10402000002010BD003C024030B505461F4887B057
:104030000024016841F480710160006806A900F461
:1040400080700590684600F039F90398A8B100F037
:1040500055F940001649174AB0FBF1F11648491EC0
:10406000026040F2E732C0E90324C0E90114846130
:1040700000F0B0FC040003D015E000F03FF9E9E7E0
:104080000D4800F04BFD04000DD12D2000F034F858
:10409000102D07D2002229462D2000F03BF80748BA
:1040A000056000E0012407B0204630BD40380240E2
:1040B00040420F00002000406037002078000020C0
:1040C0000C4882B0016841F480410160006800F44E
:1040D000804000900748001F016841F08051016056
:1040E0000068002200F0805000900F21901E02B066
:1040F00000F010B844380240002809DB00F01F022D
:10410000012191404009800000F1E020C0F8001139
:1041100070470000F0B40E4B1B68C3F30223C3F1D9
:104120000704042C00D904241D1D072D01D20023EF
:1041300000E0DB1E012606FA04F56D1E0D409D40D1
:104140009E40761E164045EA0601F0BC05F01DBFF4
:104150000CED00E0064A00F0070110684FF6FF037F
:10416000184040EA012003490843106070470000EE
:104170000CED00E00000FA05704700002DE9F04763
:104180000D46040065D0DFF81491D9F80000EFB2B5
:1041900000F00700A84207D289F80070D9F80000A3
:1041A00000F00700A84254D120683D4E810712D587
:1041B000400703D5306840F4E050306020780007B5
:1041C00003D5306840F4604030603068A16820F06A
:1041D000F000084330602078C0072DD03049606877
:1041E0000839012812D0022813D0032811D00968F9
:1041F000890700292DDA316821F00301014331607C
:10420000FFF71EFA804641F2883A0EE009688903FA
:10421000EFE709688901ECE7FFF712FAA0EB080164
:10422000514502D90320BDE8F0873068616800F08D
:104230000C00B0EB810FEFD1D9F80010484601F027
:104240000701A94207D90770006800F00700A842DB
:1042500001D00120E7E72078400705D53068E16804
:1042600020F4E050084330602078000706D530681D
:10427000216920F4604040EAC100306000F05EF83F
:104280003168084AC1F30311515CC840064908600F
:1042900006480068FFF7C8FE0020C4E7003C024063
:1042A000083802407C1901087000002078000020C6
:1042B00001490120C8647047000047420F22026094
:1042C0000C4A136803F003034360136803F0F00320
:1042D0008360136803F4E053C36012684FF4E05343
:1042E00003EAD20202610448006800F00700086097
:1042F0007047000008380240003C0240044805496D
:1043000000680968044AC1F38221515CC8407047C3
:1043100070000020083802408C1901080448054943
:1043200000680968044AC1F34231515CC8407047D3
:1043300070000020083802408C190108154810B59B
:10434000006810F00C01144813D0431004290FD05A
:1043500008290ED10F4C241F216801F03F0221686B
:10436000490207D52068C0F38810A0FB030106E0CE
:10437000184610BD2168C1F38811A1FB000100237C
:10438000FCF75FF82168C1F30141491C4900B0FB0B
:10439000F1F010BD083802400024F400054810B5C3
:1043A0000068000605D5FFF7E7FE02498020891C5A
:1043B000087010BD0C3802402DE9F84F040075D08C
:1043C0002078DFF838A3C007AAF1040548D00AF125
:1043D00004000168C1F38101012908D00068C0F31D
:1043E000810002280AD1DAF80000400206D52868C8
:1043F000800335D560680028E1D031E06068B0F511
:10440000803F10D0B0F5A02F286810D020F4803065
:104410002860286820F4802028606068A0B1FFF739
:104420000FF906460CE0286840F48030F4E740F4C9
:1044300080202860F7E7FFF703F9801B642871D814
:1044400028688003F7D50BE0FFF7FAF8064604E08A
:10445000FFF7F6F8801B6428F1D828688003F7D4AA
:104460002078DFF89C9280074FF0000B3DD5A348E1
:10447000001D016811F00C0F08D00068C0F3810026
:1044800002280AD1DAF80000400206D42868800722
:1044900015D5E068012809D111E0E068B8B1012024
:1044A000C9F80000FFF7CCF8064605E022E1FFF767
:1044B000C7F8801B0228C2D828688007F7D528686B
:1044C000216920F0F80040EAC10028600DE0C9F839
:1044D00000B0FFF7B5F8064604E0FFF7B1F8801B1F
:1044E00002281FD828688007F7D42078000722D533
:1044F000824F84486169703771B101210160FFF713
:104500009FF8064604E0FFF79BF8801B022809D8B5
:1045100038688007F7D50EE0C0F800B0FFF790F8D4
:10452000064605E082E0FFF78BF8801B02287DD865
:1045300038688007F7D42078400765D56F484FF07A
:1045400000083C300068C0000BD46C483C30016867
:1045500041F08051016000684FF0010800F0805088
:104560000090694F3868C0050FD4386840F48070F7
:104570003860FFF765F8064604E0FFF761F8801B36
:10458000022853D83868C005F7D55C4FA0686C374F
:1045900001280FD00528386810D020F001003860BD
:1045A000386820F004003860A068B0B1FFF748F820
:1045B00006460EE0386840F00100F4E740F00400E1
:1045C0003860F7E7FFF73CF8811B41F28830814201
:1045D00063D838688007F5D50DE0FFF731F8064657
:1045E00006E0FFF72DF8811B41F28830814254D854
:1045F00038688007F5D4B8F1000F05D03F483C304B
:10460000016821F080510160A069B8B33B49091DE0
:104610000968C1F38101022946D00228584606D014
:10462000C9F86000FFF70CF8044639E035E04F4662
:10463000C9F86000FFF704F8064604E0FFF700F849
:10464000801B022829D828688001F7D4D4E9070103
:104650000843A16A2D4A490802EB0141626A41EA16
:104660008211084394F82C1040EA0161CAF8001046
:1046700001203866FEF7E4FF044605E03CE0FEF763
:10468000DFFF001B022808D828688001F7D533E037
:10469000FEF7D6FF001B022802D90320BDE8F88FE1
:1046A00028688001F4D427E00128F7D0DAF8000068
:1046B000E26900F4800191421CD1226A00F03F01BE
:1046C000914217D147F6C071626A0140B1EB821F77
:1046D00010D1A26A4FF0FF3300F4403103EB5202D5
:1046E000B1EB024F06D194F82C1000F07060B0EBE3
:1046F000016F01D00120D1E70020CFE7043802404C
:1047000000004742800E4742007000400000FFFF5B
:104710007047704770B5040009D0606A002540B149
:1047200025616561A56294F8510040B120E0012047
:1047300070BD6068B0F5827FF4D0E561F2E784F87F
:1047400050502D48A0652D48E0652D4820662D4825
:1047500060662D48A0662D48E0662D4820672D48EC
:104760006067A06F08B92C48A067014620468847BB
:10477000022084F851002068016821F040010160A6
:10478000A088218900F4827001F404410843A189C2
:1047900001F400610843217C01F002010843217DFE
:1047A00001F001010843218B01F400710843217FCE
:1047B00001F03801084394F8201001F0800108430B
:1047C000218D01F40051084321680860A06904218B
:1047D00001EA104094F8241001F010010843216808
:1047E00048602068C16921F40061C16165650120EC
:1047F00084F85100002070BDE1480008DD48000841
:10480000E5480008E3480008DF480008E7480008DA
:1048100013470008114700081D4800082DE9F04122
:1048200086B0064614216846FCF78AF825493068A8
:10483000884243D124480025016841F48041016049
:104840000068214900F4804010390590086840F064
:1048500004000860086800F004000590086840F053
:10486000020008600868022400F002000590082099
:1048700003274FF005088DE8B10169461348FEF79C
:10488000EDFD20038DE8B10169461148FEF7E6FD14
:10489000114C1048C4E900054020C4E9020500019C
:1048A000C4E90405A561E561256220466562FEF75D
:1048B00077FC08B1FDF712FBB464A66306B0BDE84F
:1048C000F0810000003800404038024000080240FB
:1048D0000004024070600240202B002070477047A7
:1048E000704770477047704770477047704710B502
:1048F00090F83C20012A22D0012280F83C20CA688E
:104900008C6822F4407222434C6822F48062224375
:104910000C6822F4006222430C6922F48052224384
:104920004C6922F400522243C969002322F48042D8
:104930000A4301684A6480F83C30002010BD022020
:1049400010BD000070B590F83C20012A32D001253E
:1049500080F83C50022280F83D2002685368946839
:1049600023F070060B6833435360134B02689A427E
:1049700014D0B2F1804F11D0104B9A420ED0104B90
:104980009A420BD00F4B9A4208D00F4B9A4205D057
:104990000E4B9A4202D00E4B9A4204D1496824F041
:1049A00080031943916080F83D50002180F83C104D
:1049B000084670BD022070BD0000014000040040A8
:1049C00000080040000C004000040140004001408D
:1049D0000018004010B5040003D094F83D0010B159
:1049E0000EE0012010BD002084F83C00204603F0BA
:1049F000FDF8A06C08B91148A0640146204688471C
:104A0000022084F83D00211D206802F0A9FF01204A
:104A100084F8460084F83E0084F83F0084F84000A3
:104A200084F8410084F8420084F8430084F844008C
:104A300084F8450084F83D00002010BD414A00087C
:104A400008B500682D4A2E49904207D1086840F009
:104A500001000860086800F001000BE0284A294BBB
:104A6000121F984208D1106840F0200010601068B2
:104A700000F02000009008BD234B984207D1086841
:104A800040F480300860086800F48030F2E71F4B83
:104A9000984207D1086840F400300860086800F4C4
:104AA0000030E7E71A4B984207D1086840F48020AD
:104AB0000860086800F48020DCE71649884211D1BC
:104AC000106840F0400010601068002200F04000C4
:104AD000009005212B20FFF71DFBBDE808402B208F
:104AE000FFF70ABB0C498842C5D1106840F080002E
:104AF0001060106800F08000BCE70000000001407A
:104B0000443802400014004000400140004401408D
:104B10000048014000180040001C004090F83D1083
:104B2000012901D001207047022180F83D10016861
:104B3000CA6842F00102CA6000681149884214D074
:104B4000B0F1804F11D00F4988420ED00E498842F3
:104B50000BD00E49884208D00D49884205D00D4936
:104B6000884202D00C49884204D1816801F00701D3
:104B7000062903D0016841F001010160002070475F
:104B8000000001400004004000080040000C00400C
:104B900000040140004001400018004070B5044688
:104BA00090F83C000025012817D0012684F83C60CD
:104BB000022084F83D002068826822F0770222F407
:104BC0007F4282600868502838D00DDC20284FD002
:104BD00005DC90B3102811D14AE0022070BD3028C6
:104BE00046D040280AD13BE060282FD070280DD055
:104BF000B0F5805F03D0B0F5005F12D0012584F8D6
:104C00003D60002084F83C00284670BDCB68D1E9A7
:104C10000121206802F015FF2068816841F07701CA
:104C200009E0CB68D1E90121206802F00AFF206881
:104C3000816841F480418160E1E719E0CA68496810
:104C4000206803F009F85021206806E0CA68496826
:104C5000206803F012F86021206802F0FCFECEE725
:104C6000CA684968206802F0F7FF40212068F4E72D
:104C7000226801461046F0E72DE9F0410D46040098
:104C800003D094F83D0018B10FE00120BDE8F08199
:104C9000002084F83C00204602F0A8FF206F08B9ED
:104CA00022482067014620468847022084F83D00BC
:104CB0002068816844F2070291438160211D2068C9
:104CC00002F04EFE206881688269066A2B68AF692F
:104CD0000B4340F203318A4342EA0722A968EF6995
:104CE00011434FF6FC429143EA6841EA07210A4327
:104CF00029692F6A090141EA073717436A686D6914
:104D000026F0AA0141EA05110A4383602068876101
:104D100054F8460B0262012004F81F09E075207662
:104D2000E0762077A0750020B0E70000314D000844
:104D3000F0B587B0044614216846FBF701FE5549DB
:104D40002068544A1039022501240326524B534F40
:104D50004FF0000CB0F1804F26D0DFF844E17045F1
:104D600056D1106840F002001060106800F0020098
:104D70000590086840F0020008600868694600F085
:104D80000200059030208DE82110CDE903653846FA
:104D9000FEF764FB002205211D20FFF7BBF91D2053
:104DA000FFF7AAF907B0F0BD106840F001001060ED
:104DB000106800F001000590086840F001000860EC
:104DC000086800F001000590086840F002000860E3
:104DD0000868694600F0020005904FF4004000901A
:104DE000CDE90154CDE903641846FEF737FB0820EE
:104DF0000090CDE90154CDE9036469463846FEF7D9
:104E00002DFB002205211C20FFF784F91C20C7E799
:104E1000DFF890E070451FD1106840F0040010608A
:104E2000106800F004000590086840F00200086077
:104E30000868694600F002000590C0208DE8211046
:104E4000CDE903C53846FEF709FB002205211E20E7
:104E5000FFF760F91E20A3E7134FB842A2D11068F4
:104E600040F008001060106800F008000590086825
:104E700040F0010008600868CDE9006500F001001D
:104E8000CDE90450CDE9024669461846FEF7E6FA38
:104E900088E7000040380240000002400004024061
:104EA0000004004000080040000C004070B590F87D
:104EB0003E50044690F83F3090F8422090F843006E
:104EC000022621B104290BD0012D16D10FE0012DAE
:104ED00013D1012A11D184F83E6084F8426016E0B3
:104EE000012B0AD1012808D184F83F600DE0012B85
:104EF00003D1012A01D1012801D0012070BD84F81D
:104F00003E6084F83F6084F8426084F8436091B169
:104F1000042904D001220021206802F085FD01222D
:104F20000421206802F080FD2068016841F0010141
:104F30000160002070BD012200212068F2E7704767
:104F40007047704770B50446006801694FF000056E
:104F5000C943890717D4C168C943890713D4E91E17
:104F600001610120207720688069800702D0D4F891
:104F7000901005E0D4F8981020468847D4F89C108B
:104F800020468847257720680169C943490719D415
:104F9000C168C943490715D46FF0040101610220BB
:104FA00020772068806910F4407F02D0D4F89010F8
:104FB00005E0D4F8981020468847D4F89C10204685
:104FC0008847257720680169C943090718D4C16853
:104FD000C943090714D46FF0080101610420207748
:104FE0002068C069800702D0D4F8901005E0D4F89A
:104FF000981020468847D4F89C102046884725778B
:1050000020680169C943C90619D4C168C943C906E2
:1050100015D46FF010010161082020772068C06965
:1050200010F4407F02D0D4F8901005E0D4F8981026
:1050300020468847D4F89C1020468847257720686A
:105040000169C943C90709D1C168C943C90705D165
:10505000891E0161D4F880102046884720680169C4
:10506000C94309060AD4C168C943090606D46FF0CA
:1050700080010161D4F8B01020468847206801699A
:10508000C94349060AD4C168C943490606D46FF02A
:1050900040010161D4F888102046884720680169E2
:1050A000C94389060CD4C168C943890608D46FF086
:1050B000200101612046D4F8A810BDE870400847DF
:1050C00070BD000070B586B0044614216846FBF739
:1050D00037FC294D21680023284A02242848A94288
:1050E00011D1116841F0100111601168029301F0B3
:1050F000100105914FF4D441CDE900140121CDE90F
:10510000034169460DE01F4E0325B1420DD11168E0
:1051100041F010011160116801F01001059160214A
:1051200010E0FEF79BF906B070BD174E1748B1426C
:105130000FD1116841F002011160116801F0020104
:10514000059181150091CDE90143CDE9033569460B
:10515000E7E70F4EB142E6D1116841F0020111605C
:10516000116801F0020105917115CDE9001402AE3C
:10517000694686E83800D4E7000001403038024034
:105180000010024000400140004401400004024081
:105190000048014070B5044690F83C000025012805
:1051A0000FD0012084F83C006AB1042A0FD0082AED
:1051B00011D00C2A13D00125002084F83C00284689
:1051C00070BD022070BD206802F04EFCF4E720683C
:1051D00002F07AFCF0E7206802F0ACFCECE7206813
:1051E00002F0DCFCE8E7704710B5040003D094F847
:1051F0003D0010B10EE0012010BD002084F83C00FD
:10520000204602F0F3FCA06D08B91148A0650146E4
:1052100020468847022084F83D00211D206802F0C6
:105220009FFB012084F8460084F83E0084F83F008C
:1052300084F8400084F8410084F8420084F8430078
:1052400084F8440084F8450084F83D00002010BD37
:1052500055520008704770B5044690F83C0000268F
:105260000D4601280FD0012084F83C006AB1042AC1
:105270001DD0082A2FD00C2A3FD00126002084F808
:105280003C00304670BD022070BD206802F0ECFB8F
:105290002068816941F0080181612068816921F0FD
:1052A00004018161206881692A69114311E0206845
:1052B00002F00AFC2068816941F400618161206884
:1052C000816921F480618161206881692A6941EAEC
:1052D00002218161D2E7206802F02CFC2068C169BC
:1052E00041F00801C1612068C16921F00401C16178
:1052F0002068C1692A69114311E0206802F04EFC60
:105300002068C16941F40061C1612068C16921F46C
:105310008061C1612068C1692A6941EA0221C161D5
:10532000ACE7000010B5040003D094F83D0010B1C4
:105330000EE0012010BD002084F83C00204602F061
:1053400055FC206E08B91148206601462046884762
:10535000022084F83D00211D206802F001FB01209D
:1053600084F8460084F83E0084F83F0084F840004A
:1053700084F8410084F8420084F8430084F8440033
:1053800084F8450084F83D00002010BD91530008CA
:10539000704770477047000010B5044649B10429B2
:1053A0000AD008290BD094F8410001280AD0012026
:1053B00010BD94F83E00F8E794F83F00F5E794F844
:1053C0004000F2E70220B1B3042938D0082939D0CF
:1053D00084F841000122206802F026FB1B49206866
:1053E0001B4A884201D0904203D1436C43F40043EE
:1053F00043642068884213D0B0F1804F10D0154923
:1054000088420DD0144988420AD01449884207D0F6
:10541000904205D01249884202D01249884204D1F4
:10542000816801F00701062903D0016841F00101FC
:105430000160002010BDFFE784F83E00CAE784F851
:105440003F00C7E784F84000C4E7000000000140C7
:10545000000401400004004000080040000C00402F
:10546000004001400018004030B504460D46006879
:10547000002202F0D9FA194941F211122068931062
:10548000884202D01649884209D1016A114206D1E8
:10549000016A194203D1416C21F400414164206842
:1054A000016A114206D1016A194203D1016821F053
:1054B0000101016001203DB1042D08D0082D09D063
:1054C00084F84100002030BD84F83E00FAE784F8FB
:1054D0003F00F7E784F84000F4E7000000000140D7
:1054E0000004014000680349884201D1FEF77ABDFB
:1054F000704700000020004070477047704738B583
:10550000044690F83E00202826D171B16AB194F883
:105510003C00012820D0012084F83C002063204674
:1055200002F0A8FD010002D005E0012038BD206B8B
:10553000012802D00121084638BD20680268406871
:10554000009020680C3050E8002F42F0100240E834
:105550000023002BF5D1EEE7022038BD70477047DD
:1055600070B5044620680C3050E8001F21F490719B
:1055700040E80012002AF5D12068143050E8001FDE
:1055800021F0010140E80012002AF5D1206B01282A
:1055900009D120680C3050E8001F21F0100140E8CC
:1055A0000012002AF5D1206840694FF0000540063E
:1055B00015D52068143050E8001F21F0400140E864
:1055C0000012002AF5D1A06B48B10565A06BFDF76C
:1055D000B9FC20B1A06BFDF710FD202806D0E585B1
:1055E000202084F83E002563002070BD1020206438
:1055F000032070BD7047704770470000F8B5016820
:1056000004460868CA684B6910F00F0F4FF0000598
:1056100056D003F0010602F49077374361D0C107FA
:1056200005D0D10503D5216C41F00101216441076A
:1056300005D5D90703D0216C41F00201216481070F
:1056400005D5D90703D0216C41F00401216401077D
:1056500007D502F02001314303D0216C41F008014D
:105660002164216C00293BD0800604D5900602D528
:10567000204602F019FC20684069216CC0F38010BC
:10568000090700D440B3204602F0B2FB206840690D
:1056900040061ED52068143050E8001F21F040015C
:1056A00040E80012002AF5D1A06B90B16C49016569
:1056B000A06BFDF790FC002812D0A06B016DCBE031
:1056C00083060ED593060CD52046BDE8F84002F0BF
:1056D000EBBB2046616DBFE0616D204688472564C5
:1056E000F8BD266B2023012E7BD1C60679D5D606C0
:1056F00077D50868486800904869400640D5A16B96
:10570000086840680004000CEAD0A28D8242E7D904
:10571000E085C869B0F5807F2DD020680C3050E856
:10572000001F21F4807140E80012002AF5D12068A2
:10573000143050E8001F21F0010140E80012002A57
:10574000F5D12068143050E8001F21F0400140E8F6
:105750000012002AF5D184F83E30256320680C3011
:1057600050E8001F21F0100140E80012002AF5D196
:10577000A06BFDF7E7FBA08DE18D401A81B229E017
:10578000A08DE18D401A81B2E08D0028A8D00029BB
:10579000A6D020680C3050E8002F22F4907240E828
:1057A0000026002EF5D12068143050E8002F22F09A
:1057B000010240E80026002EF5D184F83E30256332
:1057C00020680C3050E8002F22F0100240E800233F
:1057D000002BF5D1A26E01B02046BDE8F040104785
:1057E000FFE705062CD515062AD594F83D0021289B
:1057F0007FF476AFA068B0F5805F01D12069B0B1C9
:10580000206A411C2162216800784860E08C401EBB
:105810000004000CE084EBD12068C16821F0800115
:10582000C1602068C16841F04001C160F8BD206AD4
:105830000088C0F308004860206A801C2062E5E709
:105840004006F3D55006F1D5CA68204622F0400242
:10585000CA6084F83D30A16C01B0BDE8F040084753
:10586000C57C000870B5040004D094F83D00002504
:1058700010B10DE0012070BD84F83C50204602F0CC
:10588000EDFAE06E08B91348E06601462046884705
:10589000242084F83D002068C16821F40051C160D3
:1058A000204602F061FB2068016921F4904101610A
:1058B0002068416921F02A0141612068C16841F4F2
:1058C0000051C1602564202084F83D0084F83E002A
:1058D000002070BDD95800082DE9F04F87B004466C
:1058E00014216846FBF72CF8A0489F4F0221D4F8FA
:1058F00000C09E4B10380322DFF874E200258E06AC
:105900004FF0080B4FF48069BC4545D11F6847F440
:1059100080171F601B6803F480130593036843F02E
:1059200004030360036803F004030593036843F072
:105930000803036000688A4600F008000590C8026A
:10594000CDE9000ACDE9025290465F466946CDF89E
:1059500010B07046FDF782FD0420CDE9000ACDE9C4
:105960000258694604978348FDF778FD834F8248C3
:105970003860C7E90165C7E9035980157D61C7E94A
:1059800006500002C7E908053846FDF709FC08B1D2
:10599000FCF7A4FAA76371E0DFF8E481DFF8CCA19B
:1059A00007270AF1040AC4451BD1DAF8004044F085
:1059B0001004CAF80040DAF8003003F01003059331
:1059C000036843F001030360006800F001000590E4
:1059D0004FF4C0608DE82300CDE90327694669488C
:1059E000BEE0DFF8A481C4454CD1D3F800C04CF42C
:1059F000003CC3F800C01B6803F400330593036840
:105A000043F008030360006800F008000590602080
:105A10008DE82300CDE9032769465648FDF71EFDB2
:105A2000564F5548603778303860C7E90165C7E997
:105A30000359B0467D614FF48036BD61C7E9075612
:105A400038467D62FDF7ACFB08B1FCF747FAA76367
:105A5000BC634A4F4848C0379030E7E8020840200E
:105A6000A7E82102454847F81459C030BD61C7E98D
:105A700007567D6251E0FCF731FA52E0BC6307B093
:105A8000BDE8F08FDFF80481C4454CD1D3F800C0E5
:105A90004CF4802CC3F800C01B6803F480230593EA
:105AA000036843F008030360006800F008000590F5
:105AB0004FF440708DE82300CDE9032769462D4857
:105AC000FDF7CCFC2C49324F183138463960C0E91B
:105AD0000165C0E90359B0464E464FF40039C7F896
